{"abi":[{"type":"constructor","inputs":[],"stateMutability":"nonpayable"},{"type":"function","name":"getAllReviewsForRestaurant","inputs":[{"name":"_restaurantId","type":"uint256","internalType":"uint256"}],"outputs":[{"name":"reviewers","type":"address[]","internalType":"address[]"},{"name":"reviewTexts","type":"string[]","internalType":"string[]"},{"name":"imageLinks","type":"string[]","internalType":"string[]"},{"name":"voteCounts","type":"int256[]","internalType":"int256[]"},{"name":"timestamps","type":"uint256[]","internalType":"uint256[]"}],"stateMutability":"view"},{"type":"function","name":"getRestaurantReviews","inputs":[{"name":"_restaurantId","type":"uint256","internalType":"uint256"}],"outputs":[{"name":"","type":"tuple[]","internalType":"struct RestaurantReview.Review[]","components":[{"name":"reviewer","type":"address","internalType":"address"},{"name":"reviewText","type":"string","internalType":"string"},{"name":"imageLink","type":"string","internalType":"string"},{"name":"voteCount","type":"int256","internalType":"int256"},{"name":"timestamp","type":"uint256","internalType":"uint256"}]}],"stateMutability":"view"},{"type":"function","name":"getUser","inputs":[{"name":"_user","type":"address","internalType":"address"}],"outputs":[{"name":"level","type":"uint256","internalType":"uint256"},{"name":"exp","type":"uint256","internalType":"uint256"}],"stateMutability":"view"},{"type":"function","name":"registerUser","inputs":[],"outputs":[],"stateMutability":"nonpayable"},{"type":"function","name":"restaurants","inputs":[{"name":"","type":"uint256","internalType":"uint256"}],"outputs":[{"name":"id","type":"uint256","internalType":"uint256"},{"name":"name","type":"string","internalType":"string"}],"stateMutability":"view"},{"type":"function","name":"setUserLevel","inputs":[{"name":"_user","type":"address","internalType":"address"},{"name":"_level","type":"uint256","internalType":"uint256"}],"outputs":[],"stateMutability":"nonpayable"},{"type":"function","name":"submitReview","inputs":[{"name":"_restaurantId","type":"uint256","internalType":"uint256"},{"name":"_reviewText","type":"string","internalType":"string"},{"name":"_imageLink","type":"string","internalType":"string"}],"outputs":[],"stateMutability":"nonpayable"},{"type":"function","name":"users","inputs":[{"name":"","type":"address","internalType":"address"}],"outputs":[{"name":"level","type":"uint256","internalType":"uint256"},{"name":"exp","type":"uint256","internalType":"uint256"}],"stateMutability":"view"},{"type":"function","name":"voteReview","inputs":[{"name":"_restaurantId","type":"uint256","internalType":"uint256"},{"name":"_reviewIndex","type":"uint256","internalType":"uint256"},{"name":"_isUpvote","type":"bool","internalType":"bool"}],"outputs":[],"stateMutability":"nonpayable"},{"type":"event","name":"ReviewSubmitted","inputs":[{"name":"restaurantId","type":"uint256","indexed":true,"internalType":"uint256"},{"name":"reviewer","type":"address","indexed":true,"internalType":"address"},{"name":"reviewText","type":"string","indexed":false,"internalType":"string"},{"name":"imageLink","type":"string","indexed":false,"internalType":"string"}],"anonymous":false},{"type":"event","name":"ReviewVoted","inputs":[{"name":"restaurantId","type":"uint256","indexed":true,"internalType":"uint256"},{"name":"reviewIndex","type":"uint256","indexed":true,"internalType":"uint256"},{"name":"voter","type":"address","indexed":true,"internalType":"address"},{"name":"newVoteCount","type":"int256","indexed":false,"internalType":"int256"}],"anonymous":false},{"type":"event","name":"UserLeveledUp","inputs":[{"name":"user","type":"address","indexed":true,"internalType":"address"},{"name":"newLevel","type":"uint256","indexed":false,"internalType":"uint256"}],"anonymous":false}],"bytecode":{"object":"0x608060405234801561001057600080fd5b506000805560408051808201909152600e81526d109a5cdd1c9bc811195b1a59da1d60921b60208201526001906100479082610196565b5060016004556040805180820190915260118152704f6365616e20566965772044696e696e6760781b60208201526005906100829082610196565b50600260085560408051808201909152600e81526d135bdd5b9d185a5b8811dc9a5b1b60921b60208201526009906100ba9082610196565b506003600c908155604080518082019091529081526b557262616e2054617374657360a01b6020820152600d906100f19082610196565b50610254565b634e487b7160e01b600052604160045260246000fd5b600181811c9082168061012157607f821691505b60208210810361014157634e487b7160e01b600052602260045260246000fd5b50919050565b601f82111561019157806000526020600020601f840160051c8101602085101561016e5750805b601f840160051c820191505b8181101561018e576000815560010161017a565b50505b505050565b81516001600160401b038111156101af576101af6100f7565b6101c3816101bd845461010d565b84610147565b6020601f8211600181146101f757600083156101df5750848201515b600019600385901b1c1916600184901b17845561018e565b600084815260208120601f198516915b828110156102275787850151825560209485019460019092019101610207565b50848210156102455786840151600019600387901b60f8161c191681555b50505050600190811b01905550565b6115df806102636000396000f3fe608060405234801561001057600080fd5b50600436106100935760003560e01c80636f77926b116100665780636f77926b146100f157806379519ed0146101375780638cc0b1cb1461014a578063a87430ba1461016e578063ad5461d81461019557600080fd5b806305532b2d1461009857806333f5780e146100c157806349d250c3146100d65780634d3820eb146100e9575b600080fd5b6100ab6100a6366004610f3e565b6101b6565b6040516100b89190610f9d565b60405180910390f35b6100d46100cf36600461106e565b6103a7565b005b6100d46100e4366004611098565b610421565b6100d4610803565b6101226100ff3660046110d6565b6001600160a01b0316600090815260106020526040902080546001909101549091565b604080519283526020830191909152016100b8565b6100d461014536600461119d565b61088e565b61015d610158366004610f3e565b610ab5565b6040516100b89594939291906112a7565b61012261017c3660046110d6565b6010602052600090815260409020805460019091015482565b6101a86101a3366004610f3e565b610e92565b6040516100b8929190611347565b606060028211156101e25760405162461bcd60e51b81526004016101d990611368565b60405180910390fd5b600082600481106101f5576101f5611397565b60040201600301805480602002602001604051908101604052809291908181526020016000905b8282101561039c5760008481526020908190206040805160a081019091526005850290910180546001600160a01b031682526001810180549293919291840191610265906113ad565b80601f0160208091040260200160405190810160405280929190818152602001828054610291906113ad565b80156102de5780601f106102b3576101008083540402835291602001916102de565b820191906000526020600020905b8154815290600101906020018083116102c157829003601f168201915b505050505081526020016002820180546102f7906113ad565b80601f0160208091040260200160405190810160405280929190818152602001828054610323906113ad565b80156103705780601f1061034557610100808354040283529160200191610370565b820191906000526020600020905b81548152906001019060200180831161035357829003601f168201915b50505050508152602001600382015481526020016004820154815250508152602001906001019061021c565b505050509050919050565b600181101580156103b9575060038111155b6104055760405162461bcd60e51b815260206004820152601d60248201527f4c6576656c206d757374206265206265747765656e203120616e64203300000060448201526064016101d9565b6001600160a01b03909116600090815260106020526040902055565b60038311156104425760405162461bcd60e51b81526004016101d990611368565b600080846004811061045657610456611397565b600402019050806003018054905083106104a95760405162461bcd60e51b8152602060048201526014602482015273092dcecc2d8d2c840e4caecd2caee40d2dcc8caf60631b60448201526064016101d9565b60008160030184815481106104c0576104c0611397565b600091825260209091206005909102018054909150336001600160a01b03909116036105435760405162461bcd60e51b815260206004820152602c60248201527f526576696577206f776e65722063616e6e6f7420766f7465206f6e207468656960448201526b72206f776e2072657669657760a01b60648201526084016101d9565b336000908152601060205260408120549081900361055f575060015b80846105715761056e816113fd565b90505b808360030160008282546105859190611419565b909155505084156105ca5782546001600160a01b0316600090815260106020526040812060019081018054919290916105bf908490611441565b909155506106f49050565b60008360030154121561061f5760405162461bcd60e51b815260206004820152601f60248201527f566f746520636f756e742063616e6e6f7420676f2062656c6f77207a65726f0060448201526064016101d9565b82546001600160a01b0316600090815260106020526040902060010154156106765782546001600160a01b03166000908152601060205260408120600190810180549192909161067090849061145a565b90915550505b82546001600160a01b031660009081526010602052604090205460011080156106ba575082546001600160a01b031660009081526010602052604090206001015415155b156106f45782546001600160a01b0316600090815260106020526040812060019081018054919290916106ee90849061145a565b90915550505b82546001600160a01b0316600090815260106020526040902060010154600a116107b15782546001600160a01b03166000908152601060205260408120805460019290610742908490611441565b909155505082546001600160a01b0390811660009081526010602052604080822060010182905585549092168082529082902054915190917fdccdbd00266b209f095bfa9fd02e02206fc2f4fa4cce243bb3218bd0ec04cfa4916107a891815260200190565b60405180910390a25b336001600160a01b031686887ffd6ebb3a73fcf6dc1ea85fce7704eea09759e5e5ec4cde4634172b86caaeade686600301546040516107f291815260200190565b60405180910390a450505050505050565b33600090815260106020526040902054156108605760405162461bcd60e51b815260206004820152601760248201527f5573657220616c7265616479207265676973746572656400000000000000000060448201526064016101d9565b6040805180820182526001808252600060208084018281523383526010909152939020915182559151910155565b60028311156108af5760405162461bcd60e51b81526004016101d990611368565b60008084600481106108c3576108c3611397565b60040201905060005b60038201548110156109b357336001600160a01b03168260030182815481106108f7576108f7611397565b60009182526020909120600590910201546001600160a01b0316036109ab5781600301818154811061092b5761092b611397565b90600052602060002090600502016004015461012c61094a9190611441565b4210156109ab5760405162461bcd60e51b815260206004820152602960248201527f596f752063616e206f6e6c792072657669657720616761696e2061667465722060448201526835206d696e7574657360b81b60648201526084016101d9565b6001016108cc565b506040805160a08101825233815260208082018681529282018590526000606083018190524260808401526003850180546001808201835591835292909120835160059093020180546001600160a01b0319166001600160a01b0390931692909217825592519192909190820190610a2b90826114bc565b5060408201516002820190610a4090826114bc565b506060820151600382015560809091015160049091015533600081815260028301602052604090819020805460ff191660011790555185907f1a5c7cb4e4bc362ec4a5c3bffde1c0bd760342a6485e5d86aa24f93f4e8be7d990610aa7908790879061157b565b60405180910390a350505050565b6060808080806003861115610adc5760405162461bcd60e51b81526004016101d990611368565b6000808760048110610af057610af0611397565b6004020190506000816003018054905090508067ffffffffffffffff811115610b1b57610b1b6110f8565b604051908082528060200260200182016040528015610b44578160200160208202803683370190505b5096508067ffffffffffffffff811115610b6057610b606110f8565b604051908082528060200260200182016040528015610b9357816020015b6060815260200190600190039081610b7e5790505b5095508067ffffffffffffffff811115610baf57610baf6110f8565b604051908082528060200260200182016040528015610be257816020015b6060815260200190600190039081610bcd5790505b5094508067ffffffffffffffff811115610bfe57610bfe6110f8565b604051908082528060200260200182016040528015610c27578160200160208202803683370190505b5093508067ffffffffffffffff811115610c4357610c436110f8565b604051908082528060200260200182016040528015610c6c578160200160208202803683370190505b50925060005b81811015610e86576000836003018281548110610c9157610c91611397565b6000918252602090912060059091020180548a519192506001600160a01b0316908a9084908110610cc457610cc4611397565b60200260200101906001600160a01b031690816001600160a01b031681525050806001018054610cf3906113ad565b80601f0160208091040260200160405190810160405280929190818152602001828054610d1f906113ad565b8015610d6c5780601f10610d4157610100808354040283529160200191610d6c565b820191906000526020600020905b815481529060010190602001808311610d4f57829003601f168201915b5050505050888381518110610d8357610d83611397565b6020026020010181905250806002018054610d9d906113ad565b80601f0160208091040260200160405190810160405280929190818152602001828054610dc9906113ad565b8015610e165780601f10610deb57610100808354040283529160200191610e16565b820191906000526020600020905b815481529060010190602001808311610df957829003601f168201915b5050505050878381518110610e2d57610e2d611397565b60200260200101819052508060030154868381518110610e4f57610e4f611397565b6020026020010181815250508060040154858381518110610e7257610e72611397565b602090810291909101015250600101610c72565b50505091939590929450565b60008160048110610ea257600080fd5b60040201805460018201805491935090610ebb906113ad565b80601f0160208091040260200160405190810160405280929190818152602001828054610ee7906113ad565b8015610f345780601f10610f0957610100808354040283529160200191610f34565b820191906000526020600020905b815481529060010190602001808311610f1757829003601f168201915b5050505050905082565b600060208284031215610f5057600080fd5b5035919050565b6000815180845260005b81811015610f7d57602081850181015186830182015201610f61565b506000602082860101526020601f19601f83011685010191505092915050565b6000602082016020835280845180835260408501915060408160051b86010192506020860160005b8281101561104657868503603f19018452815180516001600160a01b0316865260208082015160a09188018290529061100090880182610f57565b9050604082015187820360408901526110198282610f57565b606084810151908a0152608093840151939098019290925250506020938401939190910190600101610fc5565b50929695505050505050565b80356001600160a01b038116811461106957600080fd5b919050565b6000806040838503121561108157600080fd5b61108a83611052565b946020939093013593505050565b6000806000606084860312156110ad57600080fd5b8335925060208401359150604084013580151581146110cb57600080fd5b809150509250925092565b6000602082840312156110e857600080fd5b6110f182611052565b9392505050565b634e487b7160e01b600052604160045260246000fd5b600082601f83011261111f57600080fd5b813567ffffffffffffffff811115611139576111396110f8565b604051601f8201601f19908116603f0116810167ffffffffffffffff81118282101715611168576111686110f8565b60405281815283820160200185101561118057600080fd5b816020850160208301376000918101602001919091529392505050565b6000806000606084860312156111b257600080fd5b83359250602084013567ffffffffffffffff8111156111d057600080fd5b6111dc8682870161110e565b925050604084013567ffffffffffffffff8111156111f957600080fd5b6112058682870161110e565b9150509250925092565b600082825180855260208501945060208160051b8301016020850160005b8381101561125f57601f19858403018852611249838351610f57565b602098890198909350919091019060010161122d565b50909695505050505050565b600081518084526020840193506020830160005b8281101561129d57815186526020958601959091019060010161127f565b5093949350505050565b60a08082528651908201819052600090602088019060c0840190835b818110156112ea5783516001600160a01b03168352602093840193909201916001016112c3565b505083810360208501526112fe818961120f565b9150508281036040840152611313818761120f565b90508281036060840152611327818661126b565b9050828103608084015261133b818561126b565b98975050505050505050565b8281526040602082015260006113606040830184610f57565b949350505050565b602080825260159082015274125b9d985b1a59081c995cdd185d5c985b9d081251605a1b604082015260600190565b634e487b7160e01b600052603260045260246000fd5b600181811c908216806113c157607f821691505b6020821081036113e157634e487b7160e01b600052602260045260246000fd5b50919050565b634e487b7160e01b600052601160045260246000fd5b6000600160ff1b8201611412576114126113e7565b5060000390565b8082018281126000831280158216821582161715611439576114396113e7565b505092915050565b80820180821115611454576114546113e7565b92915050565b81810381811115611454576114546113e7565b601f8211156114b757806000526020600020601f840160051c810160208510156114945750805b601f840160051c820191505b818110156114b457600081556001016114a0565b50505b505050565b815167ffffffffffffffff8111156114d6576114d66110f8565b6114ea816114e484546113ad565b8461146d565b6020601f82116001811461151e57600083156115065750848201515b600019600385901b1c1916600184901b1784556114b4565b600084815260208120601f198516915b8281101561154e578785015182556020948501946001909201910161152e565b508482101561156c5786840151600019600387901b60f8161c191681555b50505050600190811b01905550565b60408152600061158e6040830185610f57565b82810360208401526115a08185610f57565b9594505050505056fea2646970667358221220bcfca7f883f17565895076fcdb4c6b580aff2d1820612276061a6a73bf91e51264736f6c634300081a0033","linkReferences":{}},"methodIdentifiers":{"getAllReviewsForRestaurant(uint256)":"8cc0b1cb","getRestaurantReviews(uint256)":"05532b2d","getUser(address)":"6f77926b","registerUser()":"4d3820eb","restaurants(uint256)":"ad5461d8","setUserLevel(address,uint256)":"33f5780e","submitReview(uint256,string,string)":"79519ed0","users(address)":"a87430ba","voteReview(uint256,uint256,bool)":"49d250c3"},"id":0}